:1000000098180020D10D0000BD4B0000A50D000088
:10001000A50D0000A50D0000A50D000000000000CA
:10002000000000000000000000000000150A0000B1
:10003000A50D000000000000BD090000A50D000096
:10004000990A0000990A0000990A0000990A000024
:10005000990A0000990A0000990A0000990A000014
:10006000990A0000990A0000990A0000990A000004
:10007000990A0000990A0000990A0000990A0000F4
:10008000990A0000990A0000990A0000990A0000E4
:10009000990A0000990A0000990A0000990A0000D4
:1000A000990A0000990A0000990A0000990A0000C4
:1000B000990A0000990A0000990A0000990A0000B4
:1000C000990A0000990A0000990A0000990A0000A4
:1000D000990A0000990A0000990A0000990A000094
:1000E000990A0000990A0000990A0000990A000084
:1000F000990A0000990A0000990A0000990A000074
:1001000053B94AB9002908BF00281CBF4FF0FF317E
:100110004FF0FF3000F00CB8ADF1080C6DE904CEE3
:1001200000F008F8DDF804E0DDE9022304B07047D0
:10013000704700BF2DE9F04786468C460846089E6A
:10014000154674461946002B40F0C2808542B2FA2B
:1001500082F245D94AB1C2F1200300FA02FC2EFA1C
:1001600003F3954043EA0C0C94404FEA154EA8B2B5
:10017000BCFBFEF8230C0EFB18CC08FB00F943EA8D
:100180000C43994528D9EB1808F1FF3704D299455B
:1001900002D9A8F102072B44A3EB0903A4B2B3FBD5
:1001A000FEFC0EFB1C330CFB00F044EA0344A042AF
:1001B00014D92C190CF1FF3304D2A04202D9ACF1AE
:1001C00002032C44241A43EA07401EB1D440002302
:1001D00034607360BDE8F0874746DDE76346F1E7CA
:1001E00092BB431B01214FEA154EAFB2B3FBFEFC9D
:1001F000200C0EFB1C330CFB07F840EA0343984528
:1002000062D9EB180CF1FF3004D2984502D9ACF159
:1002100002002B44A3EB0803A4B2B3FBFEFC0EFBCD
:100220001C330CFB07F744EA0344A7424ED92C19B0
:100230000CF1FF3304D2A74202D9ACF102032C44E3
:10024000E41B43EA0040C0E7C2F1200320FA03F1B7
:10025000954090402EFA03F303434FEA154EAFB298
:10026000B1FBFEFC0EFB1C10190C0CFB07F841EA5D
:100270000041884504FA02F422D969180CF1FF30D4
:1002800004D2884502D9ACF102002944A1EB08014F
:100290009BB2B1FBFEFC0EFB1C110CFB07F743EA03
:1002A00001439F420ED9EB180CF1FF3104D29F425B
:1002B00002D9ACF102012B44DB1B41EA004192E779
:1002C0006046E3E76146F7E76046A3E76346B7E7C2
:1002D000834206D916B9002108467BE7C6E900E04B
:1002E000F9E7B3FA83F78FB9834201D3724508D88F
:1002F000BEEB020460EB030301209C461EB9002103
:1003000068E73846FAE7C6E9004CF8E7C7F1200C81
:10031000BB4022FA0CF41C432EFA0CF120FA0CF329
:10032000B84001434FEA14490EFA07F5B3FBF9F858
:100330001FFA84FE09FB18300B0C08FB0EFA43EA87
:1003400000439A4502FA07F240D9E31808F1FF305A
:1003500004D29A4502D9A8F102002344A3EB0A0370
:1003600089B2B3FBF9F809FB183308FB0EFE41EA2A
:1003700003418E452CD9611808F1FF3304D28E4514
:1003800002D9A8F10203214443EA0040A0FB0298ED
:10039000A1EB0E014145CE46434602D306D14D4561
:1003A00004D2B9EB020E68EB04030138002EA6D08C
:1003B000B5EB0E0261EB030101FA0CFC22FA07F324
:1003C0004CEA0303F940C6E9003198E74046C5E727
:1003D0004346D9E7014B1B68184700BF00000020C7
:1003E000014B1860704700BF0000002030B585B099
:1003F00004460D4610220021684605F044F8022309
:100400008DF802302A46044B01932146684604F0D9
:100410002BF805B030BD00BFD503000080B5054600
:100420000E461746984603F069FC034605F034F87B
:10043000DFF81890044649F8003042463046394605
:10044000A84754F8090000F043FD00BF0800000071
:100450002DE9F047058B04462807904611D4022960
:1004600005F0070540F0CD80204604F0BFFA78B1D2
:100470000138218B042811D8DFE800F0C3106D8506
:10048000950001290CBF45F0100545F02005258396
:1004900088F31188BFF36F8FBDE8F08701F0070A7A
:1004A000AA4500F0A6800027B9463E46A368002B67
:1004B00000F0BD8041F00801218388F31188BFF36B
:1004C0006F8FA168002900F0BB800D68002900F043
:1004D000B780D1F80480334652462046C047002DED
:1004E00076D02B6829461D46F0E701F007035A1F16
:1004F000012A1BD8002221F00701062B276889B2A8
:10050000C4E9002209D13B4603E0628B01326283D9
:100510001B68002BF9D141F002012183204604F031
:1005200065FA00287BD041F0200177E0042B0AD146
:1005300021F0070189B22183204604F057FA10B157
:1005400041F020012183218B01F0070AAA4550D0F8
:100550000027B946AAE7236921F0070141F0060107
:10056000062DD3F8009021832DD1B9F1000F40D092
:1005700041F00801218388F31188BFF36F8F3A4956
:100580002046C84729E021F00701236941F0040112
:1005900089B2042DD3F804902183E6D000273E468B
:1005A0004FF0040A82E721F00701236941F00501B9
:1005B00089B2052DD3F808902183D6D000273E4676
:1005C0004FF0050A72E700273E464FF0060A6DE736
:1005D0002B4687E7B9F1000FD1D14FF02003EFF39D
:1005E000118883F31288BFF36F8F238B23F00803E6
:1005F0002383258BEA062ED525F01003238305F0EF
:1006000007056669218B002EBFF66FAF00232768B0
:10061000C4E9003321F0070141F001012183218B5E
:1006200001F0070AAA454FF000097FF43FAF002F01
:100630009BD041F00801218388F31188BFF36F8FAD
:10064000002FC7D03D68394633465246204604F055
:10065000F9F92F46F4E7AB067FF51AAF25F0200332
:10066000238305F00705FFE6714A000008B504463C
:100670004FF02002EFF3118382F31288BFF36F8FE4
:1006800001F000FD204600F0CDFB034804F038F9EE
:1006900000F0F8F8FCE700BFBD59000001F024BDF0
:1006A000014803F039BD00BF7857000038B5044653
:1006B00018B90F4B0F485B6898476168B1F5683F00
:1006C00010D0B1F5680F0DD00B4DA9420AD011F42E
:1006D0006861206807D00146084804F09AFD0023AD
:1006E0002360656038BD142204F0CDFEF9E700BF39
:1006F00010010020E65900002C5F5CA910080020C2
:1007000008B520B34368B3F5683F10D101220368F0
:10071000BFF35B8F53E8001F002903D143E800209B
:100720000028F7D1BFF35B8F0DD1002008BD094A27
:1007300093420AD000684FF0FF324FF0FF3302F0CF
:10074000FFFE0028F1D00448F0E70448EEE76FF41C
:10075000E040EBE72C5F5CA9E98FFFFFEA8FFFFF2A
:1007600008B5D8B14368B3F5683F10D100220368DB
:10077000BFF35B8F53E8001F012903D143E800203A
:100780000028F7D1BFF35B8F0BD1002008BD074ACB
:10079000934208D0006802F04DFFF6E76FF4E040A6
:1007A000F4E70348F2E70348F0E700BF2C5F5CA9D9
:1007B000E98FFFFFEA8FFFFF10B5044618B91D4B04
:1007C0001D485B6898476368B3F5683F2FD0B3F561
:1007D000680F2CD0194A934219D1236803BB1848DB
:1007E0004FF0FF324FF0FF33214602F0E1FD08B930
:1007F00023681BB90F4B13485B6898472068142285
:10080000002104F040FE4FF46863636008E0B3F534
:10081000683F0DD83A2B03D040F6BA629342DED13E
:10082000206804F036FD636843F03A03636010BD4E
:10083000054AF3E710010020E65900002C5F5CA98F
:10084000100800200C5A00003A00003A08B506498A
:1008500006484023142204F0CEFCBDE808400449B9
:10086000044803F0CBBC00BF100300201008002098
:100870008057000094570000014910220A60704719
:1008800010ED00E072B6404080F31188BFF36F8F27
:10089000BFF34F8F30BF62B6BFF36F8F704700BF9B
:1008A00072B6494081F31188BFF34F8F20BF80F3A8
:1008B000118862B6704700BF40B2002807DB044AC7
:1008C0004109012300F01F00834042F821307047A6
:1008D00000E100E040B200280CDB4309064900F0CB
:1008E0001F0020330122824041F82320BFF34F8FA5
:1008F000BFF36F8F704700BF00E100E0054B420976
:1009000000F01F0053F82220012303FA00F01040EA
:10091000704700BF00E100E040B20028A8BF00F12E
:10092000604001F10101B8BF064B4FEA4111ACBF75
:1009300000F5614000F00F00C9B2B4BF195480F84F
:100940000013704714ED00E030BFFFF7FDBF00BF9C
:100950000B4A08B50B4B22F07F029A60BFF34F8F12
:10096000BFF36F8FD3F8882022F47002C3F8882079
:1009700002F050FC03F028FA00F01EFA02F098FC96
:100980000000000000ED00E0094A0A499368096888
:100990009967094958674B6843F080534B600023BF
:1009A00083F31188BFF36F8F9368986F704700BF10
:1009B000480900200859000000ED00E012498A684B
:1009C0004FF030001044EFF3098C80E8F01F202036
:1009D00080F31288BFF36F8F0C4F4FF000664A69A7
:1009E0008A603E604FF0700414192068084C206043
:1009F000506F0023536780F3118802F1300090E8B4
:100A0000F01F8CF3098870474809002004ED00E0CE
:100A10002C0800201EF0040F0CBFEFF30880EFF34A
:100A20000980816911F8021C0229FFD001B504F088
:100A3000BDF801BD42F8203C009B42F81C3C0A492D
:100A4000019B42F8183C029B42F8143C21F0010142
:100A50004FF0807342F8043C42F8081C0023203A0F
:100A600002654367704700BF1D040000084B986093
:100A7000084B006F1860104681F30988002163B6A7
:100A800081F31188BFF36F8F00220023FFF7C6FCAC
:100A9000480900202C08002001B5EFF30580A0F1E3
:100AA00010004FEAC0000449014409C99847BDE855
:100AB00001400249084700008C5500001D0B000052
:100AC000114B124A2DE9F041D518DFF84480013D61
:100AD000B5FBF3F55D430F4B08EB0304013CB4FB9E
:100AE000F3F403FB04540E1B07460B49304604F095
:100AF000BCFC701942460021083E04F0C4FC3E676D
:100B000004F10800BDE8F0810100000000000000D1
:100B1000040000000400000064570000044B9968C2
:100B20005869884203D003494FF080520A607047E9
:100B30004809002004ED00E0134B9A6A12F0007F90
:100B40009A6A14BF1E201D2012F0807F9A6A18BF77
:100B50001F2012F4002F9A6A18BF212012F4802F50
:100B60009A6A18BF222012F4003F9A6A18BF232005
:100B700012F4803F9A6A6FEA02426FEA12429A6266
:100B800018BF2420704700BF00ED00E010B5194BDE
:100B90000246986A9C6A10F4805F14BF17201620E2
:100BA00014F4006F9C6A18BF1820A40509D5986B2F
:100BB000986A000404D51AB19A6A22F400429A6233
:100BC00019200C4B9A6A12F4806F9A6A18BF1A2087
:100BD000D2050CD49B6A13F4005F18BF1C20054A91
:100BE000936A43F47F43936200230B7010BD1B2074
:100BF000F5E700BF00ED00E010B51C4B0246986A17
:100C00009C6A10F0100F14BF1120102014F0080F70
:100C10009C6A18BF1220A40709D5586B986A000671
:100C200004D51AB19A6A22F080029A6213200F4BFF
:100C30009A6A12F0010F9A6A18BF142012F0200F5E
:100C40009A6A18BF1520D40658BF9B6A074B9A6A48
:100C5000920642BF5A6A22F400525A629A6A42F0DD
:100C6000FF029A6200230B7010BD00BF00ED00E090
:100C7000F0B5474B5B688BB00446C3F3080300250F
:100C800085F31188BFF36F8F02F07F40B0F17F4F83
:100C900011D102F00C0008280DD010074CBF0C46F3
:100CA00001250022033B8DF80720032B05D8DFE840
:100CB00003F02462665F2C46F3E700239DF80720CB
:100CC000CAB902AE04F1200720686168324603C247
:100CD0000834BC421646F7D1099A002D53D0C2F30E
:100CE000080121B96FEA52226FEA4222099202A951
:100CF000184603F059FF0BB0F0BD254BDA6A910797
:100D0000DBD4DA6A002AD8DBDA6A5200D5D55A6910
:100D1000A16942F480725A61BFF34F8FBFF36F8FA6
:100D20005A6931F8021C22F480725A61BFF34F8F66
:100D3000BFF36F8F4DF60272914209D09A6AD2B218
:100D400042B10DF107010120FFF756FF0346B5E759
:100D50002368B3E79A6A12F47F4F05D00DF10701BB
:100D60000120FFF713FFF1E79B6AB3F5803FA4D39F
:100D7000FFF7E2FEEAE70DF107010020E4E70DF1DD
:100D800007010020EDE722F4FF7222F00102ADE737
:100D900000ED00E0024A536943F0100353617047CD
:100DA00000ED00E0EFF30880EFF3098101B5724632
:100DB000FFF75EFF01BD00BF044800232021C218D9
:100DC0000133302B82F80013F9D1704700E100E0C5
:100DD000002080F31488BFF36F8FFFF75FFC0020C3
:100DE0000D490860BFF34F8F0C4880F3088800F06E
:100DF0003DF8202080F3118809484FF40061401825
:100E000080F30988EFF314800221084380F31488EB
:100E1000BFF36F8FFFF79CFD94ED00E09818002062
:100E2000580B0020BFF34F8F0549064BCA6802F4E8
:100E3000E0621343CB60BFF34F8F00BFFDE700BFFD
:100E400000ED00E00400FA050749D1F890200023E6
:100E5000C2F307221846934200DB7047C1F898306E
:100E6000C1F8A0000133F6E700ED00E008B572B666
:100E7000002383F31388FFF7E7FF144B4FF0FF3293
:100E8000C3F88020C3F88420C3F88820C3F88C20DE
:100E9000C3F89020C3F89420C3F89820C3F89C208E
:100EA000C3F88021C3F88421C3F88821C3F88C21BA
:100EB000C3F89021C3F89421C3F89821C3F89C216A
:100EC00062B6BFF34F8FBFF36F8F08BD00E100E044
:100ED000084B9B6883420BD1EFF3058343B1064B6C
:100EE0005A6842F080525A605A6A22F400425A62AA
:100EF00002F00ABF4809002000ED00E0024B034A5F
:100F00000348012100F060B8000004200000002028
:100F1000A4570000F0B5204E00258D4239DA446810
:100F200074B353B104F1FF3C14EA0C0F2FD11F2C02
:100F30002DD907681CEA070F29D1202C0768D0F8A3
:100F400008C05FFA82FE1ED9B4F1004F1DD8013CE3
:100F5000B4FA84F4C4F11F046400BEF1070F4CEA34
:100F6000040C14D827F01F04144344F01004C6F8EE
:100F70009820C6F89C404CF00104C6F8A04001320D
:100F800001350C30C9E70824E7E73E24E5E76FF0B8
:100F900015021046F0BD00BF00ED00E0044B052235
:100FA000C3F89420BFF34F8FBFF36F8F704700BF1C
:100FB00000ED00E0BFF35F8F024B0022C3F89420E6
:100FC000704700BF00ED00E010B5034C012322780C
:100FD000FFF7A0FF207010BD500B002014490868D7
:100FE000082810B521D8FFF7E5FF124C4968002208
:100FF000904201F10C0105D10F4B1870FFF7CEFFA5
:10100000002010BDC4F8982051F80C3C23F01F03B9
:10101000134343F01003C4F89C3051F8043C43F0F0
:101020000103C4F8A0300132E2E74FF0FF30E8E7F7
:10103000B057000000ED00E0500B002008B5024B57
:101040001B689847002008BD30080020034B044A65
:101050001860937843F002039370704730080020C3
:101060002400002008B50649064821F00701C1F117
:10107000005202F5802203F07CFC002008BD00BF76
:10108000AB18002098180020044A0123C2F840350C
:101090004FF080420020C2F87835704700E00140F0
:1010A00020B1034B800143F001031847704700BF94
:1010B00070570000084B70B5C31A0D4607499B10C6
:1010C000044659430648402203F0A0FD2B46014642
:1010D0002046BDE87040184748080020B76DDBB6D1
:1010E0001455000073B50C4C0C4A4023041B0093AC
:1010F0000D460B460A49A41061430646094803F011
:10110000B2FD011E05DA30462B4602B0BDE8704044
:10111000184702B070BD00BF48080020D34C000043
:10112000B76DDBB614550000002270B501210446EE
:101130001046FFF7F1FB0F4801F05AF90E4B9842A9
:1011400015D103F08FFE26690C49304603F09EFC52
:1011500000280BDB012535642469084904F11C00D3
:1011600003F094FC002801DBE564002070BD6FF003
:101170000400FBE7B51100000000AD0BD0570000E4
:1011800070B501460C2309484B43C418D4E90E56E8
:10119000403300221844A26303F025FD2DB13246EE
:1011A0002B460348BDE87040184770BD4808002032
:1011B0001455000010B1012804D07047034B1B6C7C
:1011C0005B0701D1FFF7DCBF704700BF4808002074
:1011D00008B54FF02003EFF3118183F31288BFF3BA
:1011E0006F8F124A136843F002001060DA0708D4C8
:1011F00081F31188BFF36F8F0120BDE8084003F031
:101200003EBE4FF08043D3F80C24D3F80C34DB07F8
:10121000EED5074803F0E7FC81F31188BFF36F8F29
:101220000020BDE80840FFF7ABBF00BF98080020D2
:10123000880800201FB500220123CDE90223094AB6
:10124000CDF800D06B46CDF804D003F03BFD00286C
:1012500005DB4FF480420023684602F04BFA05B0EC
:101260005DF804FBF14C000010B54FF02003EFF3E4
:10127000118483F31288BFF36F8F074A136823F03A
:101280000201DB07116002D4012003F034FE84F375
:101290001188BFF36F8F10BD980800202DE9F04131
:1012A0003849BFF35B8F0746012251E8003F41E810
:1012B00000200028F9D1BFF35B8F33B9324933489E
:1012C0004B60CB608A6003F0F4FB7B1E012B2BD8B4
:1012D000012F07D14FF08043D3F81C3403F00303F0
:1012E000012B21D003F0BBFF0546F8B9284B1B7832
:1012F000E3B14FF080430222C3F808230646DFF82B
:1013000094804FF08044D4F81824D4F81834D203D1
:1013100016D503F00303012B01D0012F10D15DB3CB
:1013200086F31188BFF36F8FBDE8F0814FF0200383
:10133000EFF3118683F31288BFF36F8F0125DEE789
:10134000ADB13046FFF7ACFAD4F81835002BDAD13E
:10135000D4F80421002AD6D0C4F80431D4F80431DA
:101360000123C4F81835C8F88031A360CBE7002109
:10137000212002F0A9FCE7E74FF080430222C3F8E6
:101380000423D1E74408002034080020640800202A
:10139000510B002000E100E008B5074803F006FF0C
:1013A00038B10648FFF752FE0448FFF719F800204D
:1013B00008BD6FF01200FBE750550000C11300009C
:1013C0000A2838B5074D044604D1AB680D215B6887
:1013D00028469847AB6803485B68E1B298472046C7
:1013E00038BD00BF5055000030B54068057B01F0A6
:1013F0001F04B2F5001F85B044EA451405D120460C
:1014000001F0D2FA002005B030BD0025B2F5800F02
:10141000CDE9025514D1B3F1007F0CBF042305239D
:101420008DF808300023194602AA204601F0D8F8AA
:10143000234B98423DD10121204601F067FAE1E7B4
:10144000B3F1C06F27D0B3F1007F14BF0123022393
:101450008DF80830836823FA01F111F00101E1D120
:10146000B2F1A07FDED104F01F03620903F5E0733F
:1014700013D0012A20D1134A52F82330DB07D1D4EC
:101480000DF107052946204601F0EAF90E4B984276
:1014900006D00395C6E70323DAE74FF0A042EBE757
:1014A000284601F02DFA064B9842F2D06FF00B005F
:1014B000A9E76FF01500A6E751F82330FFDE00BF63
:1014C0000000AD0B000300500400AD0B10B501F09F
:1014D00007FA044668B901F0DBF9084B98420AD1D3
:1014E0000748214601F0B6F9224605210620FFF7FC
:1014F00013FA002010BD6FF00400FBE70000AD0BF5
:1015000005150000420970B5034602D0012A17D024
:1015100070BD0D4E326951680029F9D003F01F03E8
:1015200001250C689D400029F2D08A682A4002D02B
:101530004B68304698472CB1236821461C46F2E799
:10154000024EE7E72346F8E73C5500002855000027
:101550002DE9FF4147683B7B01F01F0545EA431534
:101560000E4628460DF10701144601F079F914F4EE
:10157000403F80460DD1284601F03CFA3D4B98454E
:1015800003D19DF8070001F0B5F9002004B0BDE8D3
:10159000F0810023194602AA2846CDE9023301F062
:1015A0001FF8344B984214D1804503D19DF80700B1
:1015B00001F0A0F9A3034ED540F206332340B3F562
:1015C000837F1AD00DD8062B18D005D8B3B1022BC3
:1015D00033D06FF01500D9E7B3F5807FF9D101233F
:1015E0000CE040F20222934229D0B3F5407F28D08C
:1015F000B3F5007FEDD1022300E007238DF808301A
:1016000084F48033C3F30043E0068DF8093054BFFF
:10161000C4F34013032321038DF80A3013D57A68ED
:101620000123B340C2F80835002202A9284601F080
:1016300097F8104B9842A8D0CBE70423DEE70523A8
:10164000DCE70323DAE7620341BF01237A68B34092
:10165000C2F80C35E8E7E3064FF0000354BFC4F3CB
:10166000401403241A4602A928468DF8084000F0C9
:10167000B7FFDEE70000AD0B08B543681B68D3F881
:101680000805D3F80C1501F0FDFC034B984214BF7C
:101690006FF00F00002008BD0000AD0B10B5044630
:1016A000002201210320FFF737F96368986903F0EE
:1016B00090FB00280CDB60682369064A00F10801F2
:1016C00001F0E2FB044B984214BF6FF00F000020C2
:1016D00010BD00BFDD1600000000AD0B0378012B2C
:1016E00008D0022B08D04BB9054B0B6201F110005A
:1016F00001F0DCBF034BF8E7034BF6E7034BF4E7DD
:101700000000AD0B0100AE0B0200AE0B0100AD0BF3
:1017100010B50446002201210420FFF7FDF863689C
:10172000986903F056FB00280CDB60682369064AC1
:1017300000F1080101F0A8FB044B984214BF6FF0C0
:101740000F00002010BD00BFDD1600000000AD0B33
:101750002DE9F04F8BB005460C4690460193476843
:1017600006694FF0FF324FF0FF33304601F0C2FF01
:1017700006F1100A00220023504601F0BBFF384654
:1017800001F0C6FBDFF8C0B04FF00009C14501D33E
:1017900000242EE0237A039313F008014DD1122286
:1017A0000DF11600029103F06EFE039B6068019933
:1017B000069003F0010220688DF8151013F0020F57
:1017C00002998DF8142008901DD108F1FF334B4584
:1017D00002D9237D5B0718D57ABB202205A938469C
:1017E00001F0C2FB584512D0184B984228D06FF038
:1017F0000404384601F09CFB304601F057FF2046B8
:101800000BB0BDE8F08F0A46E8E74022E6E74FF468
:1018100080420023504601F06DFF30B1384601F0A0
:1018200087FB2846FFF728FFE1E7336A5B4504F1B1
:101830000C04DCD109F10109A8E76FF08504D8E7B1
:101840006FF00F04D5E700BF0000AD0B0B00AD0B30
:10185000036803F01F025B09026004D0012B0348F8
:1018600018BF002070474FF0A040704700030050A1
:101870002DE9F04FDFF85C9185B01546824600EB0C
:1018800081014FF00108514503D1002005B0BDE8AA
:10189000F08FDAF8003003F07F04C3F343277F2C86
:1018A0004FEA134308BF4FF0FF34222B00F28F8022
:1018B000DFE803F01219213B24353B8D8D8D8D3EE1
:1018C0006A8D8D8D8D8D8D8D8D8D8D8D8D8D8D8D6B
:1018D0008D6D7376797C7F00C5F80C45621C6BD1E9
:1018E0000AF1040ACFE7C5F81445631CF8D00026B6
:1018F0004FF0000B25E0C5F80845EFE7631CC5F87D
:101900000845EDD0002603A80394FFF7A1FF039B31
:1019100008FA03F3C0F80C354FF0010B11E0661C18
:10192000C5F80C45DCD00126EDE7C5F81045DCE72D
:10193000C5F80845002FD8D1601CD1D00026B34689
:101940000627DAF80030019303F40052002A03A8B6
:101950001CBF01264FF0000B0394FFF779FF039A99
:10196000019B00EB8200C3F3C114D0F800273B02B7
:1019700043EA840343EA0B0302EA0902134343EAFE
:101980004603C0F80037ABE7C5F80C45D2E7C5F809
:101990002445621CA4D00126AAE7C5F828459DE786
:1019A000C5F83045F5E7C5F83445F2E7C5F83845E0
:1019B000EFE7C5F83C45ECE703A80394FFF748FFC1
:1019C000039B08FA03F3C0F808350126A4E76FF07B
:1019D00085005BE7F0F8FCFF074BD3F8082142B124
:1019E0000020C3F80801D3F80821D3F818350B708C
:1019F00070474FF0FF30704700200040024BD3F893
:101A00008004C3F8800470470020004030B54B7953
:101A1000012B22D0032B1DD110258B79032B19D13B
:101A2000CB79BBB90A7912B1022A13D10E220B6805
:101A3000B3F5164F61D02DD8B3F5165F5FD016D829
:101A4000B3F5966F5DD00AD8B3F5967F5CD0B3F549
:101A5000167F5CD06FF085004EE00025DDE7B3F522
:101A6000166F57D0B3F5965FF4D1344B39E0B3F528
:101A7000E14F52D007D8B3F5615F50D0B3F5964F20
:101A8000E8D12F4B2DE047F61224A342E2D14FF4C8
:101A9000000326E0B3F5613F44D011D8B3F5963F7B
:101AA00042D008D84DF6C024A3423FD0B3F5614FD1
:101AB000D0D1244B15E0B3F5E13FCBD1224B10E060
:101AC000B3F5612F35D007D8204CA34233D0B3F5FE
:101AD000E12FBFD11E4B04E01E4CA342BAD14FF000
:101AE000805304691C482A43C0F82435C0F86C258B
:101AF00003C984E80300002030BD184BF1E7184B00
:101B0000EFE74FF49E23ECE74FF4A033E9E74FF4FF
:101B10001C33E6E74FF41D23E3E7124BE1E74FF4F4
:101B20006C13DEE7104BDCE7104BDAE74FF465038C
:101B3000D7E70F4BD5E74FF08063D2E700B0130033
:101B400000A04E0000F0EB0000E0D70190D00300B1
:101B500000705F0740420F000020004000509D00D1
:101B60000050270000F0750000B0AF0300903A016C
:101B700000D0BE0EF8B50E4603F071FB1A4D78BBCF
:101B800064240127BFF35B8F55E8003F002B03D18E
:101B900045E80072002AF7D1BFF35B8F07D0212000
:101BA0000021013C02F090F814F0FF04EAD10F4C40
:101BB0000023C4F81C31D4F81C310123A360C4F8FD
:101BC0001C654FF47A76D4F81C3123B9012003F058
:101BD00047F9013EF7D10123E36000232B60F8BDF4
:101BE00001232B60E3E700BFB40800200020004081
:101BF000F7B5134C436807690021C4F800151E6847
:101C0000054601AA304603F0F4F8002815DB019BD5
:101C1000326819791868FFF72BFE00280DDB39466A
:101C20002846FFF7F3FE40B90423C4F80035C4F892
:101C30000801D4F808310123236003B0F0BD00BFD0
:101C40000020004070B5012383400E4ABFF35B8F34
:101C5000DC4352E8001F01EA040542E80056002E6A
:101C6000F7D1BFF35B8F4FF4803282400648C0F853
:101C70000823BFF35F8FBFF36F8F0B4214BF0120A8
:101C8000002070BDBC0800200010014070B40E4957
:101C9000D1E90034D01AC31844F1000422F07F4681
:101CA000C1E90034A6F50013B3F5400F09D2074B84
:101CB0001B681A0A1B069C19054B42F10005C3E973
:101CC000004570BC02F056B9E0010020C0080020B9
:101CD000E801002011B3BFF35B8F0123104A83405A
:101CE00052E800CF4CEA030C42E800C10029F7D1CA
:101CF000BFF35B8F0B4A4FF480338340C2F8043349
:101D0000094BBFF35B8F1B68BFF35B8FC340DB07DF
:101D100042BF064B4FF40032C3F80021704700BFAA
:101D2000BC08002000100140B808002000E100E0DD
:101D30000D4B1868010A0006BFF35F8F0B4BD3F8F9
:101D40000435181841F10001B3F5801F0AD2084B81
:101D5000D3E90023904271EB030303D210F18070AA
:101D600041F10001704700BFC00800200010014091
:101D7000E80100202DE9F04F85B016461F469DF87A
:101D800040A00446FFF75EFF0190FFF7D1FFB0428D
:101D900071EB070354D23E4B301A67EB01019842B6
:101DA00071F100014FD23B4B03EB0413D3E9022343
:101DB0009F4208BF96425ED037494FF4803804F105
:101DC000500508FA04F8AD00C1F848832046ADB2CA
:101DD00003F02AF826F07F4B05F1804504F5A8733F
:101DE00005F58835DC464FF003090293029A2CF082
:101DF0007F4341F82230C1F84483D1F80435274AA3
:101E00006FF00200C01A604420F07F40904232D947
:101E1000286868B1D1F804350393A3EB0B0020F0D8
:101E20007F40B0F5000F26D9204602F0FDFF039B4E
:101E3000BAF1000F07D109EB030C09F10109D5E74D
:101E4000BAF1000F09D06FF0150520460199FFF790
:101E500041FF284605B0BDE8F08F0123104ABFF3CB
:101E60005B8FA34052E8000F184342E800010029AD
:101E7000F8D1BFF35B8F07490E98230101EB0412E1
:101E8000C8500F9B5360C2E902670025DDE700BF21
:101E900001008000D001002000100140FDFF7F0004
:101EA000B80800207FB51C4C1C4BC4F80833C4F89C
:101EB00048331B4B00254FF0FF304FF0FF31C4F883
:101EC0000855C3E902014FF48033C4F80433154BBD
:101ED00002264FF400320121C4F804631120C3F834
:101EE00080212A46FEF718FD1120FEF7E5FC0E4A78
:101EF0000123A360236013600C4B0D4A0093CDE9CE
:101F0000015500232846FFF735FF3046FFF7C6F995
:101F1000284604B070BD00BF0010014003000F0050
:101F2000D001002000E100E0BC0800208D1C000072
:101F3000FFFF7F002DE9F7432F4CD4F804339907B6
:101F40000BD5D4F8043143B12C4A0023C4F8043132
:101F5000D4F80431136801331360D4F80433DA037E
:101F60002AD5BFF35B8F264B53E8002F22F00101E7
:101F700043E800100028F7D1BFF35B8FD30702D4EA
:101F8000D4F84031C3B10025C4F84051D4F84031F1
:101F9000FFF7CEFE4FF02003EFF3118283F3128898
:101FA000BFF36F8F174BD3E90267B042B94106D236
:101FB00082F31188BFF36F8F03B0BDE8F0834FF059
:101FC000FF384FF0FF39C3E90289D3E900101D60E3
:101FD0004FF48033C4F84833C4F84051D4F840314A
:101FE00082F31188BFF36F8F0029E5D0009032464D
:101FF0003B4628468847DFE700100140C008002024
:10200000B8080020D00100201FB5431C23D00128B0
:1020100023DD134A134B9042D4BF04461C46FFF7FE
:1020200087FE114B0F49D3E90023801AB0F5000F4A
:1020300028BF002404448C4228BF0C46A2180B4938
:1020400000914FF00000CDE9010043F10003FFF7DC
:1020500091FE04B010BD034CE1E70124DFE700BFAF
:10206000FEFF7F00FFFF7F00E00100208D1C0000CD
:1020700008B5FFF75DFE024B1B68C01A08BD00BF24
:10208000E001002010B5084C012363601120FEF729
:1020900021FC064BC4F80833C4F84833044B4FF412
:1020A0000032C3F8802110BD0010014003000F0072
:1020B00000E100E04FF08053D3F83021082A06D128
:1020C000D3F83431052B02D8024AD05C7047002087
:1020D000704700BFD45A0000024AD2F80034002BE7
:1020E000FBD0704700E0014010B54FF08053D3F8AB
:1020F0003021082A4ED14FF080420021C2F80C1145
:10210000C2F81011C2F8381502F54042D3F8041491
:10211000C2F82015D3F80814C2F82415D3F80C140B
:10212000C2F82815D3F81014C2F82C15D3F81414DB
:10213000C2F83015D3F81814C2F83415D3F81C14AB
:10214000C2F84015D3F82014C2F84415D3F824146B
:10215000C2F84815D3F82814C2F84C15D3F82C143B
:10216000C2F85015D3F83014C2F85415D3F834140B
:10217000C2F86015D3F83814C2F86415D3F83C14CB
:10218000C2F86815D3F84014C2F86C15D3F844347B
:10219000C2F87035FFF78EFF18B13A4B3A4AC3F8D0
:1021A0008C26FFF787FF18B1384BFB22C3F81825A0
:1021B000FFF780FF70B14FF080414FF08053D1F8AE
:1021C000E42ED3F8583222F00F0203F00F0313432A
:1021D000C1F8E43EFFF76EFF20B12D4B4FF40072C3
:1021E000C3F840264FF08053D3F83031082B1AD172
:1021F0004FF08043D3F80024D20744BF6FF00102B0
:10220000C3F800244FF08053D3F83431052B02D8A3
:10221000204AD35C3BB14FF01023D3F808224FF093
:102220008043C3F858254FF01023D3F80022002A2A
:1022300003DBD3F80432002B22DA174901234FF0D5
:102240001020C1F804351224FFF746FFC0F8004201
:10225000FFF742FFC0F80442FFF73EFF0023C1F83A
:102260000435FFF739FFBFF34F8F0C490C4BCA6899
:1022700002F4E0621343CB60BFF34F8F00BFFDE772
:1022800010BD00BF005000404881030000F0004036
:1022900000900240CE5A000000E0014000ED00E056
:1022A0000400FA0530B50468CCB1BFF35B8FB4FA13
:1022B00084F3C3F11F03DBB201229A4024EA020235
:1022C00050E8005FA54204D140E8002CBCF1000FAB
:1022D000F6D1BFF35B8FE6D102480B7030BD0248E8
:1022E000FCE700BF0000AD0B0200AD0B10B50368AA
:1022F000CB40DB0714D401238B400268BFF35B8F14
:1023000043EA020150E8004F944204D140E8001C27
:10231000BCF1000FF6D1BFF35B8FEED1014810BDC9
:102320000148FCE70000AD0B0400AD0BF7B5044617
:1023300018B1012823D003B0F0BD4FF08043022232
:10234000C3F80823C3F80401D3F804210122DA609A
:10235000064601238DF8073042F210754FF0804792
:10236000D4B1012CE7D1D7F80C3403F48033AEBBE1
:1023700083B3012002F074FD013DF4D12AE04FF057
:1023800080430022C3F80803C3F80021D3F80021DA
:1023900058600DF10706DCE7D7F8183403F48033F2
:1023A0003EB9002BC7D0012002F05AFD013DF3D108
:1023B000C1E7D7F8182402F003023260002BBAD02C
:1023C0009DF80700012803D102F04AFD013DC7D165
:1023D000012CB0D1054B00225A71ACE7D7F80C2480
:1023E00002F001023270002BEAD1F3E7C4080020AA
:1023F000044B1A7922B9012218609A80024870476A
:1024000002487047C40800200000AD0B0C00AD0B63
:1024100010B54FF08043D3F800216AB10022C3F811
:102420000021D3F800210122C3F80823114B587969
:1024300010B95A711B6898474FF08043D3F80421B4
:1024400072B10022C3F80421D3F80421D3F8182470
:10245000D3F81824920704D10122C3F818259A60F2
:1024600010BD0222C3F80823024BBDE810401B68D0
:1024700001201847C4080020036803F01F025B090D
:10248000026004D0012B034818BF002070474FF0B2
:10249000A040704700030050034A430900F01F00AA
:1024A000D35C1844C0B27047E55A000008B5FFF786
:1024B000F3FF034B083033F81000C0F3401008BDA1
:1024C0008C00002008B5FFF7E7FF034B083033F816
:1024D0001000C0F3400008BD8C00002008B5FFF7D5
:1024E000DBFF034B083033F81000400B08BD00BF82
:1024F0008C00002070B50546FFF7CEFF0C4C08306D
:102500000E4634F81030DA0508D5C3F3432304EB44
:10251000C302284654F8333052689847A3682BB159
:10252000E26831462846BDE87040184770BD00BFDC
:102530008C00002010B5FFF7AFFF124A083032F8C8
:102540001030D9051CD5C3F3432123F4F85322F8E6
:10255000103002F10E04002034F8023F13F4807FA3
:1025600003D0C3F3432399420AD001303028F3D17A
:10257000002342F831300448BDE81040FFF7B6BEF2
:1025800010BD00BF8C00002000010020F0B5014606
:10259000104A114C00200125064602F14043A3F5E4
:1025A000C2439B0805FA03F3194204D0176817B118
:1025B0001660176818430432A242EED1074BD3F8D5
:1025C0007C2132B10022C3F87C21D3F87C3140F069
:1025D0000040F0BD0061004020610040006000400C
:1025E0002DE9F04385B0054690461E46FFF754FF9F
:1025F000044609B32846FFF765FF18B12846FFF7E0
:1026000055FF38BB0023CDE900338DF80E308DF82F
:102610000F300DF10F020B4628460DF10E0102F0AE
:102620006CFC4A4A04F1080132F8113023F002032D
:1026300043F0010322F81130B8F1000F31D02846E1
:1026400098F80070D8F80490FFF73CFF20B1B9F17A
:10265000000F1BD03E4826E03C4B04F1080C33F839
:102660001C1021F02001C904C90C23F81C10B9F179
:10267000000F0BD0032FEDD8D8F8042092F800E01B
:10268000A7B9344B0EF5A27E43F82E702F4A04F101
:10269000080132F8113023F01C0343EA870322F8C3
:1026A00011304EBB2C4805B0BDE8F0834FEA8E02D6
:1026B00002F1804202F5C04241EA4E31D2F81005E3
:1026C00020F00300C2F81005D2F8100520F44F30B6
:1026D00020F44070C2F81005D2F81085280200F4EA
:1026E0007C5040EA080040EA074041F0200123F80E
:1026F0001C10C2F81005C9E7D6E900762846FFF796
:1027000019FF002FCED0114DD5E90023974201D1FA
:102710009E4218D011480DF10F01FFF7C3FD0E4B7B
:102720009842C0D19DF80F2045F8327005EBC203E6
:1027300008345E6035F8143043EA422343F4807372
:1027400025F81430AEE70022EEE700BF8C00002031
:102750000400AD0B006000400000AD0B0001002044
:102760002DE9FF4104461646FFF796FE054631B3B4
:102770002046FFF7A7FE20B92046FFF797FE002866
:1027800060D1314F05F1080837F8183013F01C0FED
:1027900002D04B78012B55D001238DF80F30002348
:1027A000CDE900134A1C8B1C20460DF10F0102F0ED
:1027B000A4FB37F8183043F0030327F818301EB98C
:1027C000224804B0BDE8F0812046FFF77BFEC8B385
:1027D0001D4F96F800C005F10800614637F810500B
:1027E000890025F0200501F18041ED0401F5C0418B
:1027F000ED0C27F810500023C1F810357278002A2C
:10280000DED0D1F81035B67823F4991323F4F853B9
:10281000C1F8103512042302D1F810E502F4403259
:1028200003F47C531343320543EA0E0302F480128F
:1028300045EA4C35134345F0200527F81050C1F800
:102840001035BDE70248BCE78C0000200000AD0B4E
:102850000400AD0B014BC3E9020170478C0000205E
:1028600010B50446FFF722FE50B12046FFF714FED4
:10287000044B083033F8103003485B0B0B7010BD6D
:102880000248FCE78C0000200000AD0B0400AD0BFB
:1028900070B50F4C94F87860BEB90E4D6022314689
:1028A00004F1100002F0EFFDC5F87C610620D5F8B8
:1028B0007C31FEF701F84FF00043C5F804330648B9
:1028C000012384F87830636770BD0448FCE700BFDB
:1028D0008C000020006000400000AD0B0500AD0B37
:1028E000034B93F87800003818BF0120704700BFF1
:1028F0008C00002001460148FFF7F8BCFC000020D6
:1029000001460148FFF7CEBCFC00002037B5044665
:10291000FFF7CCFD08B32046FFF7D4FD0546E0B92C
:102920002046FFF7DBFD03B29B0003F1804202F576
:10293000C24203F1804303F5C04315601268D3F827
:10294000102542F00102C3F8102521B1144A0123D9
:102950008340C2F8043303B030BD2046FFF79CFD2E
:10296000104B083033F81030C3F38203042B12D01D
:10297000052B12D001A80194FFF77EFD019BD0F832
:102980001015D94001F001010231204603B0BDE825
:10299000304002F0FBBA0321F7E70221F5E700BF60
:1029A000006000408C00002010B50446FFF77EFD5B
:1029B000C0B12046FFF786FDA0B92046FFF78EFD87
:1029C0000B4A01238340C2F8083303B29B0003F192
:1029D000804303F5C043D3F8102522F00302C3F867
:1029E000102510BD20460021BDE8104002F0CEBAEF
:1029F0000060004073B50446FFF74EFD184E00F12D
:102A0000080536F81530DB0727D52046FFF7CCFF41
:102A10002046FFF74BFD40B12046FFF75FFD114B0D
:102A200000F5A270002243F820202046FFF782FD27
:102A3000002301A826F815300194FFF71DFD019B26
:102A400000EB8300084BD0F80027134043F002034B
:102A5000C0F80037054802B070BD0548FBE700BF6D
:102A60008C00002000600040F0F8FCFF0000AD0B7F
:102A70000400AD0B2DE9F04F644BD3F80403C0B252
:102A800085B040F00040FFF781FD051E80F2A18077
:102A90004FF0A043D3F820250292C3F82025D3F8A5
:102AA00020280392C3F820280DF108084FF00009F0
:102AB000574B09EB030B4FE093FAA3FA9BF8004046
:102AC000BAFA8AFA4AEA44142046FFF7E5FC514B69
:102AD000019408304FEADA0233F810700AF0070365
:102AE0000120984018F8023023EA000308F8023069
:102AF00001A8FFF7C1FC019B03F5E073B90850F88A
:102B00002330C7F38206C3F3014A4B0737462FD55C
:102B100020463146FFF7EEFC01A80194FFF7ACFC1C
:102B2000019B03F5E0735FFA8AFA50F82330C3F390
:102B300001439A4507D10021204602F027FA514669
:102B4000204602F023FA01A80194FFF795FC019AB0
:102B500001239340C0F82035D8F80030002BABD1CA
:102B600008F10408B9F1000F1DD14FF001099FE7EA
:102B7000BAF1020F0CD10321204602F007FA06F049
:102B80000503012BDFD139462046FFF7B3FCDAE716
:102B90000221204602F0FAF9032EF4D0BAF1030F15
:102BA000D1D1022EEEE74FF00040FFF7EFFC4FF0DF
:102BB000A0421949D2F820350293C2F82035D1F845
:102BC000202503921343C1F820257FF46DAF25F033
:102BD0000045012415B905B0BDE8F08F95FAA5F3BD
:102BE000B3FA83F304FA03F29B0003F1804303F585
:102BF000C04325EA0205D3F81005D3F81015C0F339
:102C00000520C1F30141FFF775FCE3E700600040D8
:102C1000F55A00008C0000200003005030B500F091
:102C20001F04400911D0012812D10C4800EB840088
:102C30001B02D0F800570A4C43EA82022C4042EAB9
:102C400041012143C0F8001730BD4FF0A040EDE72F
:102C500004F5E074002353F82430FFDE0003005035
:102C6000F0F8FCFFCB7B10B433B9D1E90042036824
:102C7000C3F80845C3F80C2503688A68C3F82425FF
:102C800003793C225343054AD3582BB1006810BC4A
:102C900040F30730FDF710BE10BC7047CC08002091
:102CA00013B53B4B01930023C0F80431D0F8042145
:102CB000C0F82431D0F82421C0F81C31D0F81C21F0
:102CC000C0F80831D0F80821C0F800324B6381F811
:102CD0002F300123036291F82D209A4218BF8360A0
:102CE0004B6B8A6A934204460ED24A6AD35CC0F8A0
:102CF0001C350B6803B340F286238B608B68254834
:102D0000C4F8043302B010BD91F82C3013B1012384
:102D1000C361EEE70B6A13F0400F4FF0010316BFDB
:102D2000C361436181F82D30E3E7204602F03DF9AD
:102D300028B1019B013B0193019B002BF5DC91F82D
:102D40002F305BB91348019B002BDBDC0023C4F858
:102D5000003505231048C4F80035D3E7D4F8C4344F
:102D6000C4F8C4348BB10D4A0B4813F0010F18BFDF
:102D7000104613F0020F02F1010218BF104613F0C3
:102D8000040F074B18BF1846DDE70348DBE700BF19
:102D9000A08601000000AD0B0100AD0B0000AE0BE2
:102DA0000200AE0B13B5334B01930023C0F804317E
:102DB000D0F80421C0F82431D0F82421C0F81C3107
:102DC000D0F81C21C0F80831D0F808214B6381F8F5
:102DD0002F308B6A012B044617D10B6A5B0614D483
:102DE0000223C4F800320123236291F82D20022A25
:102DF00018BF23600B688BB140F286238B608B6811
:102E00001D48C4F8043302B010BD0123E9E7204691
:102E100002F0CBF828B1019B013B0193019B002BF1
:102E2000F5DC91F82F305BB91348019B002BEADCED
:102E30000023C4F8003505231048C4F80035E2E744
:102E4000D4F8C434C4F8C4348BB10D4A0B4813F021
:102E5000010F18BF104613F0020F02F1010218BF54
:102E6000104613F0040F074B18BF1846DDE7034860
:102E7000DBE700BFA08601000000AD0B0100AD0B39
:102E80000000AE0B0200AE0B2DE9F84390F8049061
:102E90001C4E07463C2000FB09F035180C4695F8FF
:102EA0002E1061BBA96032506B6085F82D1085F83B
:102EB000311085F83010CCB1637B85F8383094F848
:102EC0000E8085F83980B8F1000F0BD120680623F9
:102ED00003224146FFF7A2FE606806230322414613
:102EE000FFF79CFE21463846FFF7BCFE3C2303FB60
:102EF00009660548012386F82E30BDE8F8830348AB
:102F0000FBE700BFCC0800200000AD0B0500AD0BB7
:102F1000036802790521C3F80015044B3C2101FB2D
:102F20000233022283F82E20704700BFCC08002015
:102F300003680B4A0179C3F80823D3F8002222F072
:102F40000302C3F800220022C3F80025054B3C20F1
:102F500000FB0133012183F82E1083F830207047E5
:102F600086420400CC0800202DE9F047314F047957
:102F7000D0F800903C2303FB04730D4693F82D30EA
:102F8000012B944604D10B78012B06D12A4811E07D
:102F9000022B02D10B78012BF8D13C26274BC9F824
:102FA000083306FB047696F830302BB1B36824481A
:102FB000C9F80433BDE8F0878CF00403C3F3800341
:102FC00086F83030C6F820C0A846B8E80F0006F1F1
:102FD0000C0EAEE80F00D8F80030CEF800306B6869
:102FE000B362EB6873626B78C9F888352B78C4EBF1
:102FF000041A012B07EB8A0A17D09BB9CCF3401CAB
:103000003C2303FB04735146484683F82CC0FFF76A
:1030100047FE3C235C433A193B59002BCAD182F846
:103020003030C7E74FF0010CEAE751464846FFF75A
:10303000B9FEEEE7CC0800200500AD0B8642040087
:103040000B00AD0B0149024802F047B8CC08002044
:103050000030004002494FF0402002F03EB800BF6F
:1030600008090020036803F01F025B09026004D016
:10307000012B034818BF002070474FF0A040704755
:1030800000030050F7B5064602F07EF8084602F04D
:103090007BF801A80196FFF7E5FF019B2E4D00EBA1
:1030A00083000C46D0F80037019440F20D612B40AC
:1030B0000B43C0F8003701A8FFF7D4FF019B00EBDA
:1030C00083000127D0F800372B400B43C0F80037AE
:1030D000042001F0C5FE092501A80194FFF7C2FFF5
:1030E000019AD0F81035D340DB0715D401A801961A
:1030F000FFF7B8FF019B07FA03F3C0F80C35042073
:1031000001F0AEFE304602F03FF8013D042001F030
:10311000A7FE15F0FF05DFD101A80194FFF7A2FF7C
:10312000019A01239340C0F80C35042001F098FE69
:10313000204602F029F8042001F092FE01A8019433
:10314000FFF790FF019AD0F810350448D34003F000
:103150000103C01A03B0F0BDF0F8FCFF0100AD0B95
:1031600038B503464FF02002EFF3118582F3128841
:10317000BFF36F8F02F090F9064A1458184601F019
:103180005FFE85F31188BFF36F8F2046BDE838409E
:10319000FDF79EBE08000000104B70B553F82040AC
:1031A000013053F82060A64200D870BDD4E9003544
:1031B00095B153B12846984738B10028B8BF40426E
:1031C000EB68FF28A8BFFF201870EA68537843F027
:1031D000010353700834E6E79847FBE70C590000F9
:1031E00008B50A4B012203201A70FFF7D5FF00F043
:1031F00045FF0420FFF7D0FF00F046F901F07CFB0B
:10320000034A137B23F00103137308BD510B002005
:103210007002002008B50348034A0021121A01F089
:10322000D0FF08BDD0010020540B002070B5002352
:1032300086B00122CDE90423174E184D01930F22C9
:10324000CDE902321649142303FB005506EBC016E4
:103250004FF4A0720446134B009502FB0011304658
:1032600000F0D4F8737B2C7423F0040373730E4BBB
:10327000EE60013403EBC4236B600C4BBFF35B8F38
:1032800053E8001F013143E80012002AF8D1BFF3D0
:103290005B8F06B070BD00BFF00100204809002020
:1032A000581300206B520000580B002044090020E6
:1032B00080B50020A6B0FFF76FFF2D4B83F3088881
:1032C0002C4D2D4E6B692D4F43F400736B61002420
:1032D000E02385F82230EC772C766C76AC7685F896
:1032E00020406B6A43F4E0236B6285F82340FDF7CE
:1032F00051FDFDF7C1FA4FF0FF33AB62EB62FDF712
:103300006DFEFDF7FBFD40F20113ADF8243006AB76
:10331000B360CDE91E44219401F047FF0120FFF77F
:103320003BFF0220164DFFF737FF00F043FC154B23
:1033300075610593012314490094CDE903434FF4CB
:1033400080623B46CDE90144284600F05FF86A7B85
:10335000064622F0040228466A7301F0DBFF20468D
:10336000FFF764FF3A4631462846FDF77FFB00BF72
:103370005813002000ED00E048090020E131000072
:10338000700200200C5B00009814002038B5064C39
:10339000064D0020AC4200D338BD204601F015FF99
:1033A0000028F9DB1C34F5E77C0100207C010020BB
:1033B00073B50C464FF02005EFF3118185F31288A9
:1033C000BFF36F8F45695DB125602B6843618369E9
:1033D00001338361002081F31188BFF36F8F11E007
:1033E00052EA030603D125606FF00B00F3E7CDE945
:1033F00000230246083000F0E7FA18B9024B9B6838
:103400005B69236002B070BD480900202DE9F043DC
:1034100085B0984600F158030732C0E91633109B77
:10342000037322F0070504230026437301EB05090B
:103430000F9B83730F46C0E9066649468660C673D4
:103440000446FDF73DFB07300E9B20F00700A06609
:10345000C4E9187502930D9B0193A9EB00090C9B1D
:1034600000934A46434639462046FDF7E3FA054BAA
:1034700066659B6803B1DB6EE366484605B0BDE850
:10348000F08300BF480900202DE9F043294C2A4D64
:1034900087B02646AE4204F12C040FD300F05AFB4D
:1034A000244CDFF898904FF4004640F2E737AC42E6
:1034B00020D307B0BDE8F04300F060BB54F8043CF3
:1034C000059354F80C3C049354F8103C039354F8BF
:1034D000143C029354F8183C019354F81C3C00939C
:1034E00054E9092354E90B01FFF790FF54F82C3CF1
:1034F0005E65CEE7636A5A1C0DD023EAE3730021B0
:103500003846C3FB060151EAC333D4F8008004D126
:10351000404600F0CFFA2C34C9E74FF47A7200230A
:10352000FCF7EEFD02460B4608F11800494600F094
:10353000ABFCF0E70C5700000C570000795300007B
:103540002DE9F341044617461E464FF02003EFF3E2
:10355000118883F31288BFF36F8FC368334A7BB13E
:1035600080689168884219D057EA060318D188F319
:103570001188BFF36F8F6FF00F0002B0BDE8F081CC
:10358000916891F90E1021610133E3609368A360A3
:1035900088F31188BFF36F8F0020EEE72169F2E70F
:1035A00091F90E1090F90E309942A8BF19466FF0AC
:1035B0007E029142B8BF11468B422EDD01F061FEC2
:1035C0000546CDE900761A482246414600F0FCF94E
:1035D0000028E1D04FF02003EFF3118683F3128827
:1035E000BFF36F8FA068D0B1236821699C420AD0D5
:1035F0004BB193F90E309942A8BF19466FF07E0384
:103600009942B8BF194601F03CFE40B10848314626
:1036100000F03EFA6FF00A00AFE70025D1E7002D79
:10362000F4D186F31188BFF36F8FF3E748090020C8
:10363000520B002038B5836804466BB3194A926870
:1036400093422CD1C368012B03D9013BC3600020F6
:1036500038BD4FF02003EFF3118583F31288BFF3D9
:103660006F8F0169806801F00CFE204601F088FE32
:10367000A06058B190F90E2022610022826701F00B
:1036800049FE0948294600F003FAE0E7E06085F3C7
:103690001188BFF36F8FDAE76FF01500D8E74FF0AE
:1036A000FF30D5E748090020520B002038B504460A
:1036B0004FF02003EFF3118583F31288BFF36F8F70
:1036C00001F05EFE48B10022826701F023FE294628
:1036D0000748BDE8384000F0DBB9D4E902329A422D
:1036E00018BF0133A36085F31188BFF36F8F38BD16
:1036F000520B002013B54FF02004EFF3118184F337
:103700001288BFF36F8F846844B1013C846081F3F9
:103710001188BFF36F8F002002B010BD52EA03047E
:1037200006D181F31188BFF36F8F6FF00F00F3E7BD
:10373000CDE900230246024800F046F9ECE700BF5D
:10374000520B0020C3897F2B12D80A4B1B6863B130
:10375000094B90F90E201B689A4209DB437BDB067C
:1037600006D1064BC31A18BF012303F001007047AE
:103770000023FAE7700900206C090020F001002006
:10378000044BC01A044BC0105843044B01221A5476
:10379000704700BFF0020020ABAAAAAA520B00207B
:1037A00070B50E4B0E4C1E7C06EB460304EBC304B7
:1037B0000546204601F016FE0A4B002228469A557F
:1037C000FFF7C0FF48B1084B08491A68013A204684
:1037D000D317BDE8704000F057BB70BD480900200A
:1037E000F0020020520B00207009002081370000F9
:1037F00038B50D4D2B4653F8184F9C4200D004B9F4
:10380000EC68AB6838B95A7BD20604D1A26912B908
:10381000DA897F2A05D89C4202D02046FFF7C0FFF4
:1038200023466B6138BD00BF4809002070B590F990
:103830000D20437B002A014604DA03F07F03437323
:1038400001F02EFD4B7B154A63F07F0310464B734E
:1038500050F8183FD469834208BF002323B9C1E957
:1038600000042160D1610CE091F90E5093F90E60D3
:10387000B5420ED0AE420CDD5868C1E9003001609F
:1038800059609068431A5842BDE870405841FFF7AC
:10389000AFBF9C42E3D01B68E0E700BF48090020AF
:1038A00070B490F90D30427B002B29DBD30627D171
:1038B00083692BBB134962F07F0242730A4652F8B8
:1038C000184F944218BF2346CC6923B9C0E900249D
:1038D0002060C8610CE090F90E5093F90E60B5427B
:1038E0000AD0AE4208DD5A68C0E900321060586064
:1038F00070BC0020FFF77CBFA342E7D01B68E4E761
:1039000070BC70474809002008B590F90D20437B32
:10391000002A014604DA03F07F03437301F0C0FC80
:10392000044B9868431A58425841BDE80840FFF7D5
:103930005FBF00BF4809002070B515461C4606460B
:1039400001F0C0FCB4F1FF3F08BFB5F1FF3F08D064
:103950002A46234606F118000249BDE8704000F0EF
:1039600093BA70BD7953000038B54FF02003EFF3E0
:10397000118583F31288BFF36F8F104B104A9C6838
:103980001068A04206D1FFF70BFF85F31188BFF343
:103990006F8F38BD00211B7C11600A4AD35C002B5D
:1039A000F3D02046FFF7CEFE0028EED0637BDB0687
:1039B00002D12046FFF73AFF2046E4E748090020FD
:1039C00068090020520B002070B50C480C4D866829
:1039D0002E600C461146DDE904234FF02006EFF37C
:1039E000118586F31288BFF36F8F8068FFF7A4FFFD
:1039F0002046BDE87040FCF7C7BF00BF4809002063
:103A000068090020F8B504464FF02003EFF3118653
:103A100083F31288BFF36F8F437BDA0649B219D163
:103A20008569BDB903F07F03437301F039FC437B23
:103A3000164A817363F07F034373134653F8180FDC
:103A4000984218BF0546D0695DB9C4E900300460EA
:103A5000D46111E0A173002086F31188BFF36F8F4A
:103A6000F8BD95F90E70B9420BD08F4209DD6B6835
:103A7000C4E900531C606C600120FFF7B9FE01200F
:103A8000EAE7A842E1D02D68DEE700BF4809002040
:103A900049B9EFF3058030B9054B5A699B689A42E2
:103AA00001D0FCF771BF81F31188BFF36F8F7047AE
:103AB0004809002010B54FF02002EFF3118482F383
:103AC0001288BFF36F8F427B510704D484F31188AF
:103AD000BFF36F8F10BD22F004024273FFF7E0FEC8
:103AE00021460248BDE81040FFF7D2BF530B00202B
:103AF00070B50446183001F075FC4FF02003EFF369
:103B0000118683F31288BFF36F8F94F90D20637BC6
:103B1000002A05DA03F07F036373204601F0C0FB3F
:103B20000B4D637BA86843F010036373031B58427B
:103B30005841FFF75DFE86F31188BFF36F8FAB68C6
:103B4000A34203D1BDE8704001F042BC70BD00BF8C
:103B5000480900204FF02003EFF3118183F312880E
:103B6000BFF36F8F044B9A68D37B013BD37381F310
:103B70001188BFF36F8F70474809002010B54FF0D0
:103B80002003EFF3118483F31288BFF36F8F084B88
:103B90009A68D37B0133D3730020FFF729FE84F3A7
:103BA0001188BFF36F8FBDE8104001F011BC00BF5A
:103BB00048090020024B03F11802C3E906227047AE
:103BC00048090020F8B54FF02003EFF3118583F387
:103BD0001288BFF36F8F19498868437B03F07F0316
:103BE000437301F05DFB8B685A7B084662F07F02ED
:103BF0005A7350F8182FCC69824208BF002222B9AC
:103C0000C3E900042360CB610CE093F90E6092F9E4
:103C10000E70BE420ED0B7420CDD5168C3E90021E0
:103C20000B6053600120FFF7E3FD2846BDE8F84034
:103C3000FCF7AABEA242E3D01268E0E748090020E0
:103C400050EA01032DE9F04105460E4603D1FFF786
:103C5000B9FF00202CE0831C71F1FF332ADB01F057
:103C6000D7FB2C184FF02003EFF3118883F3128851
:103C7000BFF36F8F114F124BB8681860FFF744FE07
:103C8000B86810492A463346183000F0FDF8BA6883
:103C9000537B43F0100353734046FCF775FE01F06D
:103CA000B7FB201A63EB0303012873F10003D0DB99
:103CB000BDE8F0816FF00104241AD3E74809002021
:103CC0006809002079530000B1F1FF3F08BFB0F14F
:103CD000FF3F08B506D1084B9868FFF709FF4FF082
:103CE000FF3008BDFFF7ACFF4FF47A7380FB03038E
:103CF000C00B40EA4340F4E748090020014B9868B4
:103D0000704700BF480900202DE9F04104464FF0FC
:103D10002003EFF3118683F31288BFF36F8F037BC9
:103D2000D9070BD586F31188BFF36F8F404080F31E
:103D300011884FF0040002DFBDE8F081437B1A07D1
:103D400004D586F31188BFF36F8FF5E723F02002C7
:103D500042F00801D20920D14173A36813B1204673
:103D600001F0A6FA04F1180001F03CFB04F1580739
:103D70004FF00008A56DBD4200D0B5B90120FFF796
:103D800037FD104B9B68A342DBD1EFF30583002B7B
:103D9000D7D13046FCF7F8FDD3E703F05F0343F0DB
:103DA0000803437301F07CFAD7E7284601F080FA54
:103DB00005F1180001F016FBC5F878802846FFF7DA
:103DC0006FFDD7E74809002008B50648064A0749AD
:103DD000121A01F0F8F9BDE80840054A05490648FD
:103DE00001F0F1B900000020CC0100204C5B000084
:103DF000000000004C5B000000000020034B1B682B
:103E00000BB9FEF735B90020704700BF74090020D8
:103E100010B50E4B1C689C4204D1FFF7EFFF6FF00A
:103E2000004010BDFFF7EAFF002CF8D0D4E90432BF
:103E30001B1A62EBE072B3F1004F72F10001EEDA8F
:103E4000002AACBF18460020EBE700BF08010020A5
:103E500030B570B10B4B5B6898420AD0036843B130
:103E6000D3E90421D0E90445121941EB0501C3E966
:103E70000421D0E9003213605A600023C0E9003306
:103E800030BD00BF08010020B3F1FF3F08BFB2F111
:103E9000FF3FF8B504461D4616465CD081604FF0E2
:103EA0002003EFF3118783F31288BFF36F8F013282
:103EB00075F1FF3324DA2D49D1E900206FF00103B9
:103EC0009B1A4FF0FF3262EB00009E1B60EB050077
:103ED000012E70F1000301DA01260020C4E904601C
:103EE000234ED6F800C07568B44508BF4FF0000CEB
:103EF000BCF1000F0DD1C4E900652C6074601CE0BA
:103F0000FFF77CFF013645F10005361845EBE07000
:103F1000E4E7DCE90420D4E90431934271EB000EBC
:103F20001ADAD21ADCF8043060EB0100CCE9042084
:103F3000C4E900C31C60CCF804403368B34206D027
:103F40009C4204D1FFF764FF0021FEF75DF887F380
:103F50001188BFF36F8FF8BD9B1A61EB0001AC4570
:103F6000C4E90431C7D0DCF800C0C1E70803002071
:103F7000080100202DE9F84F4FF02003EFF3118CDA
:103F800083F31288BFF36F8FDFF8B0A0DFF8B09033
:103F90002C4FC9F80000DAF800000024504508BF93
:103FA00000200025D7E90021D9F80030E04680B391
:103FB000D0E9046C4FEAE37EB3427EEB0C0B05DAEA
:103FC000F61A6CEB0E04C0E9046422E0B21841EB6F
:103FD000E671C0E90445C7E90021FFF739FF88F31E
:103FE0001188BFF36F8F836898474FF02003EFF37A
:103FF000118883F31288BFF36F8FD9F80030DAF895
:1040000000009B1B5045C446C9F80030CAD1D7E90F
:1040100000219A1841EBE3730024C7E90023C9F893
:104020000040FFF7F5FE2146FDF7EEFF88F311880B
:10403000BFF36F8FBDE8F84FFFF796BC0801002073
:10404000740900200803002010B54FF02003EFF39F
:10405000118483F31288BFF36F8FFFF7CFFE064AF8
:104060000346D2E90001181841EBE37184F311888B
:10407000BFF36F8F10BD00BF08030020014800F0A0
:104080003FBC00BF145B000010B50A4C23681BB195
:1040900001232360002010BD00F0EAF80028F7D0CB
:1040A0000138062803D8044B53F8200010BD0348FC
:1040B00010BD00BF7809002024590000FE8FFFFFCB
:1040C000BFF34F8F0549064BCA6802F4E062134301
:1040D000CB60BFF34F8F00BFFDE700BF00ED00E0F6
:1040E0000400FA0510B4094B09490A4C4FF0FE329E
:1040F000C3F800244968C3F80424C3F80824C3F8AB
:104100000C240023C4F8003510BC084700B002504E
:104110001001002000A00250D0E90012014BC3E9B9
:10412000001270471001002010B5044650B16368BA
:1041300013F0685F05D0064A934202D00023236043
:10414000626010BD034B04485B689847EFE700BF0F
:104150002C5F5CA91001002040590000C8B14368E1
:104160000D4A934213D013F0685F0ED0012350E83C
:10417000002F194640E8001C9CF0000FF7D1012ADF
:10418000F5D0BFF35F8F00207047044870470448A4
:1041900070476FF4E04070472C5F5CA9E98FFFFF28
:1041A000EA8FFFFF80B14368094A93420AD013F0B7
:1041B000685F05D0BFF35F8F002303601846704728
:1041C00004487047044870476FF4E040704700BFF0
:1041D0002C5F5CA9E98FFFFFEA8FFFFF10B5044653
:1041E00020B1044B63600022226010BD0248FFF73B
:1041F00079FFF6E73A00003A6859000070B5D0E957
:104200000023174C174D6360D0E90230C4E9023037
:1042100022604868D1F800C0134BC3E900C0D5F84C
:104220001801D1F808C0C3F808C010F0685FD1F8D1
:104230000CC00969C3F80CC0196110D00B49C5F84E
:10424000BC110023C5E9453105F58A70C5F8B831C0
:104250009047236805F5DC70BDE87040184770BDD5
:104260002C01002090090020180100202C5F5CA97F
:1042700038B500F02FF820B1032400F063F8204691
:1042800038BD00F031F898B900F0ACF898B90F4D8E
:10429000D5F828391B0EF02B08D1D5F8242A0C4B61
:1042A0009A420AD0072400F017F8E6E70624FAE756
:1042B0000424204638BD0024F5E7012000F092F8E0
:1042C00004460028F7D1C5F80C0AD8E700B0025020
:1042D0000000E0200020704700207047014BC3F829
:1042E000040A704700B0025010B5114800F048F8B9
:1042F00000B110BD0F4800F043F80028F9D10E4C72
:10430000204600F03DF80028F3D10C4B0C481C600F
:1043100000F036F801460028EBD100F02DF80446F5
:1043200008B1204610BD00F03FF82046FAE700BF74
:104330006C01002068010020640100205C01002065
:104340006001002008B5084800F024F8074800F094
:1043500021F8074800F01EF8064800F01BF8BDE8F9
:10436000084000F00BB800BF6C010020680100207D
:10437000640100206001002000207047704700BFEA
:1043800008B5034B02681B6810689847002008BDF9
:104390002C01002008B5034B02685B681068984741
:1043A000002008BD2C01002070B5094C094D206982
:1043B000AB68984718B1084B08485B689847084AAB
:1043C000EB68206900211160BDE87040184700BF0C
:1043D000180100202C010020100100208C59000041
:1043E0008C090020F8B51A4D1A4E0446B2682869A7
:1043F0009047E8B9184F3B684CB1A3B1012B19D0D5
:10440000013B3B602869F36898470020F8BD43B939
:10441000124A0121C2F800151149D1F81029002AC9
:10442000FBD101333B60F368286998470020F8BD51
:104430000C48F8BD0A4AD2F81039002BFBD1074AC4
:104440006FF07E40C2F80035FFF748FF3B68D7E7C2
:10445000180100202C0100208C09002000A002502F
:1044600000B00250E98FFFFF2DE9F04F8BB0436899
:10447000019383789F078246144640F10981002505
:1044800091F80080B8F1000F00F00481B8F1250F19
:104490000BD04B1C02930135019B51464046984777
:1044A0000028C0F2F5800299EAE791F801808B1CA0
:1044B000B8F1250F0293EED0002399461F461F2F17
:1044C00039D8A8F12002102A0AD8DFE802F02B0917
:1044D00009310909092109090929092E09091F00BA
:1044E000A8F13002092A32D9B8F12A0F35D178065D
:1044F00054F8042B00F18180002AA7BF47F0200761
:104500009146C2F1000947F0280701E047F0010792
:10451000029A12F8018B0292B8F1000FCFD132E06B
:1045200047F0020747F00407F2E747F00807EFE714
:1045300047F01007ECE77F2F18D8A8F13002092ABE
:10454000D2D87E0603D50A2101FB0323E0E70A2126
:1045500001FB092947F02007DAE7B8F12E0F05D152
:10456000790600F1978047F04007D1E7B8F16C0F6A
:1045700032D02AD8B8F1680F35D0B8F16A0F39D0E7
:10458000B8F14C0F36D0002B48F02002B8BF27F00E
:104590004007A2F16501BCBFBFB20023022901D9C7
:1045A000612A2CD1073424F007049A4E08344FF0C6
:1045B0000708380763D506EB080B37465F4560D11F
:1045C000AE1B3744A9EB080954E1B8F1740F9FD032
:1045D000B8F17A0F9CD0D6E73A0648BF47F4007787
:1045E00047F0800794E7FE0548BF47F4007747F49B
:1045F00080778DE747F420778AE7134688E7A8F1AC
:104600006301122900F2CF80DFE811F013004800A7
:10461000CD00CD00CD00CD004800CD00CD00CD00B7
:10462000CD00CD00DF00C700CD00CD001B00CD00C8
:10463000960054F8043B8DF81C304FF0010807AE8B
:10464000B7E754F8046B744A002E08BF164617F0FB
:10465000400F14BF19464FF0FF31304600F0DDFE29
:104660008046A6E7019B51462020984700280FDB93
:10467000013FB845F6D34D44ED1BB9469BE74F4685
:10468000F7E717F8010B019B51469847002895DA88
:104690004FF0FF3528460BB0BDE8F08F390637D50F
:1046A000BA0545BF073424F0070454F8040B54F846
:1046B000080B27F010060028B6B232DA404246F462
:1046C0008066039307AF0A22394600F0B2FE7206F5
:1046D000039BA0EB07074BD526F00101BB4289B233
:1046E00040F38A80B8F1000F00F0828016F01002CB
:1046F000039240F083809B460E4640F2064116EA44
:10470000010203921EBF00220BF1010B039238E05D
:10471000FE0554F8040BCCD5B9054CBF40B200B22D
:10472000C7E7CED17A06CCD5002BCAD127F0110726
:10473000BEB21F469B46E0E727F01007BFB20A2231
:104740003E0646D5B80545BF073424F0070454F8A3
:10475000040B54F8080B002844D127F016067906FC
:10476000B6B242D5002B40D127F01707BEB21F4684
:1047700016F0100203924AD0B8F1000F45D107F1AC
:10478000010B31075CD4F20705D5D94575DDA9EBDE
:104790000B02D319CB465A464CE047F010071022C3
:1047A0004FF07808CCE7782A06D1B8F1580F14BF3B
:1047B00010224FF40472C3E7019B5146252098470D
:1047C0000028FFF665AF023566E608224FF00008C4
:1047D000B6E7F90554F8040BBDD5BE054CBFC0B211
:1047E00080B2B8E727F00607BEB2039307AF6BE7C6
:1047F00026F01106B6B29DE70E46B9E738460E46DA
:104800001F4607F1020B0746BBE73846F9E7BB46F0
:1048100073E700BF435B00003C5B0000CDE904325E
:104820005146019B202098470028FFF631AF059A9A
:10483000049B01329145F1DCA5EB0B018D189346E9
:10484000039A32B303935146019B302098470028C6
:10485000FFF61EAF039BB8F1000F10D101355E19B2
:10486000711B8F4227DB3E460DF11C0866BB2F44AF
:10487000A9EB0B093D46B94438E03B468BE703936F
:10488000023551464046019B98470028039BE6DAD3
:10489000FEE640F206410E42E1D016F0020F14BFD0
:1048A0002B20202016F4806F039305F1010551465B
:1048B00018BF2D20E7E7019B51463020984700287C
:1048C00005F10105CCDAE3E6013E019B18F806008C
:1048D000514698470028C9DADAE6019B5146202064
:1048E0009847002805F10105FFF6D2AEA9EB0503B4
:1048F000002BF2DCD7E500BF002070470020704796
:104900000FB407B504A951F8040B0191FBF76EFD34
:1049100003B05DF804EB04B0704700EBC1004088C1
:1049200040087047F8B50346FFF7F7FFB0FA80F08C
:10493000C0F11F0003EB800CCA00DCF81060171DEB
:104940000C4606328DB256B9012101FA00F0D96841
:104950000143D960CCF81040DD539D52F8BDF10001
:104960000431585AD85303EBC0009E52C5805D52A3
:10497000F4E7043A2DE9F041CC1D114424F007047A
:1049800021F007010E1BF708B7FA87F2C2F12405E0
:10499000AD004FF000080735C2F12002ED080460B9
:1049A0004146A760C4F80C80920004F1100000F0AA
:1049B0006AFD6B0043F00103638004EBC5027B1BBF
:1049C0005900A4F800805180A21924F83550A2F8AB
:1049D0000280A35304EBC70329465A8842F0010220
:1049E0005A802046BDE8F041FFF79CBF038B13F0CF
:1049F000070305D10368002B0CBF0020032070477C
:104A0000022B05D1408BB0FA80F04009800070473E
:104A1000012B05D10368002B0CBF00200520704737
:104A20000020704710B50C4600B111B96FF01500A9
:104A300010BD081D00F095F80028F9D1A368032BDC
:104A4000F6D9F3E72DE9F0410D4607461946281D32
:104A500090461E4600F096F8044638B1334642466A
:104A600029463846A446BDE8F0416047BDE8F081DC
:104A700010B44FF02004EFF3118284F31288BFF3D7
:104A80006F8F416110BC0121FBF7E2BC38B50C46C9
:104A9000054658B151B10B6843B14B6833B11C2284
:104AA000002100F0F0FC2C61002038BD6FF01500F3
:104AB000FBE770B505460E46FFF7B4FF041E15DB95
:104AC0004FF02003EFF3118283F31288BFF36F8F4F
:104AD0006B8B2C8B4FF6FF718B4204F0070407D1D0
:104AE00082F31188BFF36F8F6FF00A04204670BD08
:104AF000022C0CD101336B8382F31188BFF36F8FCB
:104B00000023224631462846FFF79CFFEEE7062C9D
:104B100014D8DFE804F004131313041A040000236C
:104B200033606B683BB9C5E90066ACB90221284621
:104B3000FBF78EFCDAE71E606E60F6E782F3118801
:104B4000BFF36F8F6FF00404D0E782F31188BFF3D7
:104B50006F8F6FF08504C9E782F31188BFF36F8F01
:104B6000C4E7034658B1426802F00302012A03D0A9
:104B7000032A04D1026812B10020986070476FF0D8
:104B8000150070474268816002F00302032A4FF06B
:104B9000000203460CBF006810465A607047704719
:104BA00008B50020FBF762FDFEF7DABA014600689F
:104BB000FEF7D6BA00210120FFF7F6BF08B5FBF7D4
:104BC000C3FEBDE80840FBF7A9BF08B5FCF736FAFD
:104BD000002008BD0369C9B20C2201FB0233186C26
:104BE00000F0070070474FF02003EFF3118283F3CA
:104BF0001288BFF36F8F036803F0C00343F0020312
:104C0000036082F31188BFF36F8F704770B5C9B22C
:104C100003694FF02004EFF3118584F31288BFF38A
:104C20006F8F0C2606FB0134246C14F0C00408D0EE
:104C3000A24206D085F31188BFF36F8F4FF0FF308B
:104C400070BD06FB013301221A6485F31188BFF39E
:104C50006F8F436803EBC1035B6898470020EFE761
:104C60008022FFF7D3BFF8B5069F0469C9B24FF0A1
:104C70002005EFF3118685F31288BFF36F8F0C25A3
:104C800005FB0144256C05F0070CBCF1010F0CD1AC
:104C9000276486F31188BFF36F8FC4E90E2343683E
:104CA00053F8313098470020F8BD05F0C005AF42F9
:104CB00086F31188BFF36F8F0CBF6FF077004FF052
:104CC000FF30F1E713B580240094FFF7CCFF02B06A
:104CD00010BD10B40069CBB21C2403FB04000021FA
:104CE00010BC1047002000F0CAB8002000F003B943
:104CF0001046FEF7DBBC43685B68D3F810350B60E9
:104D00000020704743685B6802EA010021EA020163
:104D1000C3F80805C3F80C150020704743685B68AA
:104D20000020C3F80815704743685B680020C3F88B
:104D30000C15704743685A68D2F8043521EA03001D
:104D40000B40C2F80805C2F80C350020704710B5BA
:104D500003695868F8B1884219D19C68086858609E
:104D6000A14200D19860002008602AB15A680A6008
:104D70009A68596002B99960002010E0814206D11A
:104D80000868206098688142EDD19C60EBE704469A
:104D900000680028F2D1002AE8D16FF0150010BD9C
:104DA000CA074368006905D4C1F34202012A04D04E
:104DB000022A0AD06FF0150070471B684FF0CC72C2
:104DC000C3F824254162002070471B684FF0CD6274
:104DD000F6E713B5002101AA044600F00AF80028FE
:104DE00005DB019B226819791868FCF741FD02B0C8
:104DF00010BD30B543681360057A446804EBC50400
:104E0000A34202D36FF0010030BD5C798C4201D027
:104E10000833F0E70020F7E702690B4692E8030049
:104E200083E803000020704700F150039B009BB211
:104E300003F1804303F5883300221A601B68704732
:104E400008B50020FBF7EEFFFFF71EB908B5FBF72A
:104E500027FCFBF7FBFCBDE80840FFF715B900474E
:104E600000F09FB908B50020FBF748FD08B9FBF733
:104E700023FD4FF080430022C3F8182508BD08B574
:104E800010B101282CD008BD4FF08042D2F8181480
:104E9000D2F81834C80317D503F00303012B04D04C
:104EA00013B10020FDF742FA00234FF08042C2F810
:104EB00018350023C2F80431D2F804310223C2F8B5
:104EC000043301239360DEE7D2F81434D907EBD51D
:104ED000D2F81C349B07E4D40223C2F80433D2E78F
:104EE0004FF080430022C3F80021D3F80021C3F81B
:104EF00004031860C7E7FDF719BAF7B5019001A8D8
:104F0000DDE9084716461D46FDF7B6FA019BB6F1E6
:104F1000000C18BF4FF0010C00EB83000B1E18BFF4
:104F20000123002D43EA4C0314BF4FF00C0C4FF04B
:104F3000000C002C43EA0C0314BF4FF4E06C4FF05C
:104F4000000C002F43EA0C03D0F8002714BF4FF4E5
:104F5000403C4FF0000C43EA0C0322EA030301B18A
:104F600009780EB13678760019430DB12D78AD0071
:104F700031430CB12478240229430FB13F783F0418
:104F80000C433C43C0F8004703B0F0BD1FB50DF122
:104F90000F03019300238DF80F1000931A46194652
:104FA000FFF7ABFF05B05DF804FB30B5D0F8043176
:104FB0002BB10023C0F80431D0F80431012391F85B
:104FC0002F2022B30022C0F82421D0F82441C0F8B9
:104FD0001C21D0F81C41C0F80821D0F80821002B72
:104FE00079D0002281F82D2091F82F20002A37D186
:104FF0008D6A4C6BA5421FBF0523C0F80025C0F881
:105000000035134683F0010381F82F3028E0D0F8F3
:10501000244114B1C0F824210EE0D0F81C216AB359
:10502000C0F81C41D0F81C214A6B01324A63D0F809
:10503000245145B1C0F82441D0F824210122426115
:1050400081F82F20CBE78C6AA24204D24C6AA25C82
:10505000C0F81C25C3E791F82C201AB10123C361C5
:10506000002030BD0A6A12F0400F4FF0010203D059
:10507000C26181F82D20F3E74261B0E7D0F8084122
:10508000002CACD0C0F80821D0F80841D0F8244159
:10509000002CBFD14A6B8C6AA242A0D24C6AD0F8D5
:1050A0001855A5544A6B8C6A0132651EAA424A63A0
:1050B00008D10A6A540602D40222C0F80022012252
:1050C00002628CE7A242FAD10A6A520687D502230D
:1050D00081F82D30C4E70120C3E72DE9F04186B007
:1050E00080460C46FFF761FF002846D191F82F500B
:1050F000FDB90A7B931E012B1BD8486A8B69984225
:1051000017D1CB694B624B698B620B6A81F82D50CA
:10511000C3F34013032A81F82C30404604D106B073
:10512000BDE8F041FDF7BCBD06B0BDE8F041FDF7BC
:1051300039BE04F10C070FCF01AE0FC63B683360D8
:1051400065B1D8F8C454C8F8C454A90718D46A077C
:1051500018D405F00105C5F10405EDB2002384F86B
:105160003030236A8DF800505B0702D594F82F3059
:105170001BB1D4E900316846984706B0BDE8F0811C
:105180000125EBE70225E9E707B5019001A8FDF746
:1051900069FF019A01239340C0F8083503B05DF818
:1051A00004FB08B1FBF77CBF7047704740B1C36890
:1051B000587810F001001EBF1878B0FA80F040094E
:1051C000704700F060B900F050B9D0E903321343E2
:1051D00013F003030CD143618168994201D8002088
:1051E000704741691160C168426101330A44F3E7C5
:1051F0006FF01500704710B5C0E90232002301615D
:1052000083610446FFF7E1FF0028A8BFC4E900441A
:1052100010BDF8B504460D464FF02003EFF311869C
:1052200083F31288BFF36F8F47696FB900F0A8F856
:1052300050B18767456100F06DF8314604F1080010
:10524000BDE8F840FEF724BC63692B60A369656183
:10525000013BA36186F31188BFF36F8FF8BDEFF3B5
:105260000580003818BF0120704708B54FF02002B4
:10527000EFF3118382F31288BFF36F8FFBF702FB0A
:10528000F4E790F90E308B4201D0FEF7BBBB002053
:10529000704703460020C3E90200C3E900337047AA
:1052A000D0E9003213605A600023C0E90033704730
:1052B00008B5FFF7F5FF437B23F002034373002398
:1052C000836008BD38B504460D46FEF71DFB637BC1
:1052D00043F002036373E5B1A5602B689D4209D1D9
:1052E0006B68C4E900531C606C6012E06A6893420A
:1052F000F6D01B68002BF3D094F90E2093F90E1012
:105300008A42F3D09142F1DD5A68C4E90032146058
:105310005C6038BD10B54FF02003EFF3118483F3C8
:105320001288BFF36F8FFEF7BBFA84F31188BFF3C7
:105330006F8F10BD38B504464FF02003EFF3118591
:1053400083F31288BFF36F8F437B13F0280F0BD1C9
:1053500083680BB1FFF7ACFF637B51B903F0FB032C
:1053600063732046FEF79CFA85F31188BFF36F8FB5
:1053700038BD03F0EB03F3E701211838FFF7DABF7C
:1053800038B54FF02003EFF3118583F31288BFF394
:105390006F8F0468A0420DD034B12046FFF788FF1C
:1053A00004F1180000F01EF885F31188BFF36F8F29
:1053B000204638BD0024F7E7034620B9EFF3058205
:1053C0000AB9FBF7E1BA83F31188BFF36F8F704717
:1053D0004FF02003EFF3118083F31288BFF36F8F38
:1053E000FFF7EABF10B54FF02002EFF3118482F30C
:1053F0001288BFF36F8F03683BB1FEF729FD0020D1
:1054000084F31188BFF36F8F10BD6FF01500F7E7BD
:1054100008B5FEF719FE08BD704710B502460144F5
:105420008A42134603D01C780132002CF8D1181A96
:1054300010BD930570B548BF22F4007204460846BB
:105440004CBF07212721B4FBF2F502FB1543DBB269
:10545000092B88BF5B18264688BFDBB23033B242C7
:1054600000F8013B2C46EED970BD0A44914200F190
:10547000FF3300D1704710B511F8014B03F8014F0D
:105480009142F9D110BD02440346934200D17047C6
:1054900003F8011BF9E700000148006870470000AD
:0454A0002C080020B4
:0854A40090ACFF7F0100000045
:1054AC0089100000000000002911000014550000B4
:1054BC008D33000000000000CD14000028550000C2
:1054CC00CD1400003C550000494E000000000000C7
:1054DC00F11B000050550000991300000000000063
:1054EC00A51E000000000000651000000000000078
:1054FC004D4E0000000000009D1600007855000085
:08550C001117000064550000B6
:10551400505A0000DC570000EC57000070010020D6
:10552400480800206D5A0000085800002858000060
:10553400720100209C0800207B5A000018580000CB
:105544002858000074010020A8080020B45A000064
:10555400D4580000F45800007A0100208400002090
:105564008D5A00004C580000BC5800007601002001
:10557400340000209A5A000084580000BC580000EF
:08558400780100205C0000200A
:10558C00112400005F4E000000000000B54B00002D
:10559C0000000000B54B0000453000005F4E0000DD
:1055AC00553000005F4E000000000000B54B0000BD
:1055BC00752A00005F4E000000000000B54B000093
:1055CC0000000000B54B000000000000B54B0000CF
:1055DC0000000000B54B000000000000B54B0000BF
:1055EC0000000000B54B000000000000B54B0000AF
:1055FC0000000000B54B000000000000B54B00009F
:10560C0000000000B54B000000000000351F00003A
:10561C0000000000B54B000000000000B54B00007E
:10562C0000000000B54B000000000000B54B00006E
:10563C0000000000B54B000000000000B54B00005E
:10564C0000000000B54B000000000000B54B00004E
:10565C0000000000B54B000000000000B54B00003E
:10566C0000000000B54B000000000000B54B00002E
:10567C0000000000B54B000000000000B54B00001E
:10568C0000000000B54B000000000000B54B00000E
:10569C0000000000B54B000000000000B54B0000FE
:1056AC0000000000B54B000000000000B54B0000EE
:1056BC0000000000B54B000000000000B54B0000DE
:1056CC0000000000B54B000000000000B54B0000CE
:1056DC0000000000B54B000000000000B54B0000BE
:1056EC0000000000B54B000000000000B54B0000AE
:1056FC0000000000B54B000000000000B54B00009E
:10570C00DA5A000000000000F75A00000000000008
:10571C00035B000000000000AC590000000000001A
:10572C005F5A000000000000C25A00000000000098
:10573C00895A000000000000A75A00000000000079
:10574C00395A000000000000115B0000000000004E
:08575C004C5A0000000000009F
:0C576400FFFFFFFFFFFFFFFFFFFFFFFF45
:105770000338FDD87047000000000000A14B000076
:105780001C000020140000200C000020000000007D
:1057900004000020B9070000AD060000010700006A
:1057A00061070000000000200000000000000B0660
:1057B00002000000B8570000000000003D5A000041
:1057C0002600020700000020455A000022000B11AD
:1057D000E5100000B510000000000000D11100002D
:1057E00069120000E54C0000EB4C0000351200008F
:1057F000614C0000C54C000000000000D54B0000CB
:105800000000000000000000FFFF00000003005047
:105810000000000001000000FFFFFFFF000000503B
:10582000000000000000000051150000F74C0000CF
:10583000054D00001D4D0000294D0000354D0000B4
:10584000E91300004F4D0000000000000040004040
:1058500001000000000000000000000000006806D9
:10586000000001016858000000400040745800002A
:10587000010000007C580000020000000B0C0B002F
:105880000C0C0C0000300040000000000000000084
:10589000000000000000980100000101A058000075
:1058A00000300040AC58000001000000B458000077
:1058B000020000000C000C000B000B00A14D0000CA
:1058C0000000000051170000000000000000000070
:1058D00079160000D858000000200040E45800006D
:1058E00001000000EC580000020000001900000058
:1058F00018000100D9190000751B0000FD190000F7
:105900000D1A0000194E0000F5FFFFFFAC54000017
:10591000AC540000EC540000F45400001455000096
:1059200014550000FF8FFFFFFF8FFFFFFE8FFFFF6B
:10593000FE8FFFFFFD8FFFFFFC8FFFFFFC8FFFFF40
:105940006D757465785F667265652063616C6C6502
:10595000642077697468204E554C4C2070617261E8
:105960006D6574657200000043616E277420696E76
:10597000697469616C697A65206D757465782C202D
:10598000776173204E554C4C0D0A0000436F756CC7
:1059900064206E6F74206C6F636B20706F7765721C
:1059A0002073617665206D7574657800636270722E
:1059B000696E74665F7061636B61676500466169FB
:1059C0006C656420746F207265626F6F743A207327
:1059D00070696E6E696E6720656E646C6573736C5A
:1059E000792E2E2E0A006D757465785F696E697464
:1059F0002063616C6C65642077697468204E554C37
:105A00004C20706172616D6574657200436F756CD6
:105A100064206E6F7420616C6C6F63617465206DBF
:105A200075746578206265666F726520696E697449
:105A300069616C697A696E67006D707500464C41EA
:105A400053485F30005352414D5F3000736F630025
:105A5000636C6F636B403430303030303030006313
:105A60006C6F636B5F636F6E74726F6C00677069ED
:105A70006F403530303030333030006770696F4000
:105A80003530303030303030006932630069326395
:105A9000403430303034303030006932634034309C
:105AA000303033303030006932635F6E7266785F59
:105AB0007477690075617274403430303032303040
:105AC0003000666174616C5F6572726F7200000015
